:1000000002076D0200EBFFFFFFFFFF0201688E2376
:100010008F24E4FFFEFDFCEF65247003EE65236092
:1000200016AA06AB078B828A83E4932DFDE43CFC81
:100030000FBF00010E80E0AE04AF0522900069E41E
:1000400093F5227F007E0812000E9007FEE493FCD9
:100050007401936F7002EE6C6004C2AF80FEC2B494
:1000600012009BD2AF12068422505332204B657986
:10007000626F61726420496E7465726661636520A7
:100080002843292032303036205370617265205465
:10009000696D652047697A6D6F73007400F50AF524
:1000A0000BF508F5205389F0438901C28CD2A9D2FF
:1000B000B2D2B7D288D2A822C2A8E50AB50B07D21D
:1000C000A87EFF7FFF2204540FF50A240CF8E6D225
:1000D000A8FF7E0022E50B04540FB50B0201E8F5E2
:1000E0000B240CF8E509F622D20422C0D0C0E0C0EF
:1000F00000C083C0829000FCE50823732114212FE7
:10010000212F212F212F212F212F212F212F213866
:10011000214C215D20B711D200750900758CF8754E
:100120008AF8C28DD28C215BD20675080B215DE561
:1001300009A2B713F509215BE50920D00530B70501
:10014000215B30B716D20575080B215DC200C28C49
:1001500030B7D51200D5750800215D0508D082D0D2
:1001600083D000D0E0D0D032D207C2007508003270
:10017000000000000000000000000000000000007F
:10018000000000000000000000000000000000006F
:10019000000000000000000000000000000000005F
:1001A0000000000009090000607E0000000000005F
:1001B000000000000000000000000000000000003F
:1001C000000000007151110031210000000000000A
:1001D00000000000000000007A5A1A007353130058
:1001E0006141010077571700324000800000000095
:1001F00000000000634303007858180064440400C2
:100200006545050034240000332300000000000091
:10021000000000002020000076561600664606000A
:1002200074541400725212003525000000000000C2
:10023000000000006E4E0E00624202006848080096
:100240006747070079591900365E001E000000005C
:1002500000000000000000006D4D0D006A4A0A0019
:100260007555150037260000382A000000000000F0
:10027000000000002C3C00006B4B0B00694909009A
:100280006F4F0F00302900003928000000000000E7
:10029000000000002E3E00002F3F00006C4C0C00C0
:1002A0003B3A0000705010002D5F001F000000005E
:1002B00000000000000000002722000000000000F5
:1002C0005B7B1B003D2B00000000000000000000D5
:1002D00000000000000000000D0D00005D7D1D000D
:1002E000000000005C7C1C0000000000000000001A
:1002F00000000000000000000000000000000000FE
:1003000000000000000000000808000000000000DD
:100310000000000031000000000000003400000078
:100320003700000000000000000000000000000096
:10033000300000002E0000003200000035000000F8
:1003400036000000380000001B1B00000000000009
:10035000000000002B000000330000002D00000012
:100360002A0000003900000000000000000000002A
:100370001200B8EFF47002EEF46002EF22E52054B0
:10038000F060ED12009B80E822C2B58F90D2B430AD
:10039000B3FDC2B4D2B522AD07AC067F1B120389F0
:1003A0008D828C83E49360140DEDAE0470010C1407
:1003B000F5828E83E493FF12038980E422EF601DAF
:1003C0002412601924F4601524FC601114600E24BA
:1003D0005570077FAA12038980037F00227FFF22C6
:1003E00020B00CBF58047F148005BF14027F58EF63
:1003F00024EF604424FD602924F5603F24F8603B2D
:1004000024F8603724D7602814600D24477037ED36
:10041000F424FF92097FFF22EDF424FF920A7FFF6C
:1004200022EB60037F0022EDF424FF920B7FFF227A
:10043000ED7015B20C7FFF227FFF22EB6005ED709F
:100440000580037F00227F00228D25EF12077904AB
:100450008E6904B86B04E26C048070050C71049C16
:100460007204C67304D47404F075053677053679C2
:1004700004AA7A05287B051A7C04FE7D0000053954
:10048000E52570077E077F3B1203977FFF22E52556
:1004900070077E077F3E1203977FFF22E5257007D6
:1004A0007E077F411203977FFF22E52570077E07B5
:1004B0007F441203977FFF22E52570077E077F4761
:1004C0001203977FFF22E52570077E077F4A1203FC
:1004D000977FFF22E52570077E077F4D1203977FE8
:1004E000FF22E52570077E077F501203977FFF22CA
:1004F000E52570077E077F531203977FFF22E525CE
:1005000070077E077F561203977FFF22E52570074D
:100510007E077F591203977FFF22E52570077E072C
:100520007F5C1203977FFF22E52570077E077F5EC1
:100530001203977FFF227FFF227F00221203708F1A
:1005400025E4F526E525B4F0087526FF1203708F23
:1005500025E52512077905FC11060F1205FC140686
:10056000061F06062706062F05E34A05CA5A05C5D3
:100570006905B96B05C56C05C57005C57105A17226
:1005800005AD7405937505C57A060F7C05C57D001C
:1005900000060FE5266002C10F7E077F60120397F9
:1005A00022E526706A7E077F6212039722E5267095
:1005B0005E7E077F6412039722E52670527E077FD6
:1005C0006612039722E52670462220B10CE52670BC
:1005D0003E7E077F6812039722E52670327F0D1258
:1005E00003892220B10CE52670257E077F6B12035C
:1005F0009722E52670197F2F12038922AF25AD2699
:100600007BFF1203E022AF25AD267BFF1203E02221
:100610008D25EF24FE601524FA6011240724F45080
:1006200008248A6004240B70037FFF227F0022A22B
:100630000A720950047E0180027E00300B034306DB
:100640000275F004EFA42470F582E5F03401F5831F
:10065000E5822EF582E43583F583E493F525700277
:10066000FF22ED60037FFF2253257F300C0EAF2564
:1006700012079F5007AF251207B08F25AF25120331
:10068000897FFF22E4F5217FCB1203897F42120389
:10069000897F021203891203708F23E4F524120369
:1006A000BDEF70F2E523B4E00512053C80E8E523D8
:1006B00064E1702E120370BF14DC120370BF77D692
:1006C000120370BFE1D0120370BFF0CA120370BFF3
:1006D00014C4120370BFF0BE120370EF647760B6EB
:1006E00080B4E523B4F0087524FF1203708F23E56E
:1006F00023B47706E524709E809CE523B47E06E54E
:100700002470938091AF23AD24E4FB1203E0EF70DB
:1007100085AF23AD24120610EF6002C19620B10C04
:10072000AF23AD24120449EF6002C196AF23AD247C
:1007300012062FEF7002C196C196223F70003F71E2
:10074000003F72003F73003F74003F75003F76002A
:100750003F77003F78003F79003F7A005100520018
:1007600041004200430044003F4D005000787FE4C8
:10077000F6D8FD75812602003CD083D082F8E49340
:100780007012740193700DA3A393F8740193F58212
:100790008883E4737402936860EFA3A3A380DFEF00
:1007A000C394614009EFC3947B5003D38001C322FB
:1007B000CEEFCEEEC39461400BEEC3947B5005EEBA
:1007C00024E0FF22CFEECF22FFFFFFFFFFFFFFFF5E
:1007D000FFFFFFFFFFFFFFFFFFFFFFFFFFFFFFFF29
:1007E000FFFFFFFFFFFFFFFFFFFFFFFFFFFFFFFF19
:1007F000FFFFFFFFFFFFFFFFFFFFFFFF5D74A28B07
:00000001FF
