:10000000000000080000000000001C141C0000009C
:100010000020100A040000001414360036141400E6
:1000200008083E0808003E00060C183E0C18300078
:1000300030180C3E180C060008141414223E080058
:100040001028140A14281000040A1428140A0400A2
:1000500030180C060C183000060C1830180C06006E
:100060000000003E20000000081C0A0A1C080000D6
:10007000060A1222120A0600060E1E3E1E0E060078
:10008000302824222428300030383C3E3C383000D0
:100090000022363E362200000008003E0008000024
:1000A0002008020820003E000208200802003E004E
:1000B00020103E083E04020038280808080A0E00F6
:1000C0003E22222222223E003E3E3E3E3E3E3E0058
:1000D00000081C2A080800000008082A1C08000064
:1000E0000008103E100800000008043E040800004C
:1000F0001824041E04043E000C12120C0000000020
:1001000000000000000000000808080808000800BF
:10011000141414000000000014143E143E141400C3
:10012000083C0A1C281E080006261008043230006D
:10013000040A0A042A122C00080808000000000023
:100140000804020202040800081020202010080001
:10015000082A1C081C2A08000008083E080800009D
:1001600000000000000808040000003C000000003F
:100170000000000000001800002010080402000029
:100180001C22322A26221C00080C080808081C0021
:100190001C22201C02023E003E20101820221C00BF
:1001A000101814123E1010003E021E2020221C00C7
:1001B0003804021E22221C003E2010080404040001
:1001C0001C22221C22221C001C22223C20100E0079
:1001D00000000800000800000000080000080804F3
:1001E000100804020408100000003E003E00000059
:1001F00004081020100804001C2220100808000821
:100200001C222A3A1A023C00081422223E22220012
:100210001E24241C24241E001C22020202221C0074
:100220001E24242424241E003E02020E02023E004C
:100230003E02020E020202003C02023A22223C006E
:100240002222223E222222001C08080808081C0044
:100250007020202020221C0022120A060A122200EE
:100260000202020202023E0022362A2A2222220032
:1002700022262A32222222003E22222222223E004E
:100280001E22221E020202001C2222222A122C00FE
:100290001E22221E0A1222003C02021C20201E00E6
:1002A0003E080808080808002222222222221C00F8
:1002B0002222222222140800222222222A3622006E
:1002C00022221408142222002222221408080800E4
:1002D0003E20100804023E001C04040404041C0018
:1002E00000020408102000003820202020203800C0
:1002F000081C2A0808080800000000000000007E12
:10030000081000000000000000003C203C223C00DF
:1003100002021A2622221E000000380404043800BB
:1003200020202C3222223C0000001C223E021C0015
:100330001824040E0404040000003C22223C203C4B
:1003400002021A26222222000800080808081000CB
:100350002000202020242418020222120A16220043
:1003600008080808080810000000362A2A2222007F
:1003700000001A262222220000001824242418003B
:1003800000001E22221E020200001C22223C20200D
:1003900000001A26020202000000380418201C0087
:1003A00008081C08080810000000222222324C0015
:1003B0000000222222140800000022222A2A14000F
:1003C000000022140814220000002222223C2038BF
:1003D00000003E1008043E003008080608083000FF
:1003E00008080800080808000C10106010100C0025
:1003F0000000042A100000002A142A142A142A00DB
:100400000000000000000000FFFF000000000000EE
:100410000000FFFF00000000FFFFFFFF00000000E2
:1004200000000000FFFF0000FFFF0000FFFF0000D2
:100430000000FFFFFFFF0000FFFFFFFFFFFF0000C6
:10044000000000000000FFFFFFFF00000000FFFFB2
:100450000000FFFF0000FFFFFFFFFFFF0000FFFFA6
:1004600000000000FFFFFFFFFFFF0000FFFFFFFF96
:100470000000FFFFFFFFFFFFFFFFFFFFFFFFFFFF8A
:100480000000000078080808000000000F080808B5
:1004900008080878000000000808080F00000000A5
:1004A000000000007F0808080808080F080808086E
:1004B000080808080F080808080808780808080845
:1004C0000808080878080808080808087F000000DD
:1004D0000000007F00000000000000007F0000001E
:1004E00008080808080808080808087F0808080815
:1004F000080808087F080808000000000000000045
:1005000000000000000000000808080808000800BB
:10051000141414000000000014143E143E141400BF
:10052000083C0A1C281E0800062610080432300069
:10053000040A0A042A122C0008080800000000001F
:1005400008040202020408000810202020100800FD
:10055000082A1C081C2A08000008083E0808000099
:1005600000000000000808040000003C000000003B
:100570000000000000001800002010080402000025
:100580001C22322A26221C00080C080808081C001D
:100590001C22201C02023E003E20101820221C00BB
:1005A000101814123E1010003E021E2020221C00C3
:1005B0003804021E22221C003E20100804040400FD
:1005C0001C22221C22221C001C22223C20100E0075
:1005D00000000800000800000000080000080804EF
:1005E000100804020408100000003E003E00000055
:1005F00004081020100804001C222010080800081D
:100600001C222A3A1A023C00081422223E2222000E
:100610001E24241C24241E001C22020202221C0070
:100620001E24242424241E003E02020E02023E0048
:100630003E02020E020202003C02023A22223C006A
:100640002222223E222222001C08080808081C0040
:100650007020202020221C0022120A060A122200EA
:100660000202020202023E0022362A2A222222002E
:1006700022262A32222222003E22222222223E004A
:100680001E22221E020202001C2222222A122C00FA
:100690001E22221E0A1222003C02021C20201E00E2
:1006A0003E080808080808002222222222221C00F4
:1006B0002222222222140800222222222A3622006A
:1006C00022221408142222002222221408080800E0
:1006D0003E20100804023E001C04040404041C0014
:1006E00000020408102000003820202020203800BC
:1006F000081C2A080808080000000000000000008C
:100700003E223A2A3A223E003E3E3E3E3E3E3E3E9B
:100710000406042E100804000E080C281E0804000D
:100720001C020C301C0804001E08042410080400DD
:100730001C22221C0000000008083E0808003E00A1
:1007400000000000000000000000000000000800A1
:1007500000000000000008000008003E0008000043
:10076000080808082A1C08007F000000000000009C
:10077000007F00000000000000007F00000000007B
:100780000000007F00000000000000007F0000006B
:1007900000000000007F00000000000000007F005B
:1007A000000000000000007F00000018242424182E
:1007B00000000010181010380000003C2010083C09
:1007C0000000001C2018201C00000024243C2020D5
:1007D000000000380418201C00000018041C241815
:1007E0000000003C1008040400000018241824181D
:1007F0000000003828382020000000000000000021
:100800000F0F0F0F0F0F0F0F0F0F0F0F0F0F0F0FF8
:100810000F0F0F0F0F0F0F0F0F0F0F0F0F0F0F0FE8
:100820000F0F0F0F0F0F0F0F0F0F0F0F0F0F0F0FD8
:100830000F0F0F0F0F0F0F0F0F0F0F0F0F0F0F0FC8
:00000001FF
